:100000000C942A000C948D020C94B4020C94DB0224
:100010000C943C000C943C000C943C000C943C0070
:100020000C943C000C943C000C943C000C943C0060
:100030000C943C000C943C000C943C000C943C0050
:100040000C943C000C943C000C943C000C943C0040
:100050000C943C0011241FBECFE5D8E0DEBFCDBF1D
:1000600010E0A0E6B0E001C01D92A636B107E1F7AE
:100070000E94DE040C943F050C940000823079F459
:1000800083E062E00E94A40120E931E048EC50E006
:10009000FA013197F1F721503040D1F708958330BC
:1000A00011F080E0089583E063E00E94A40120E95C
:1000B00031E048EC50E0FA013197F1F7215030403F
:1000C000D1F708951F93162F823051F483E062E038
:1000D00040E00E947E00113079F483E062E00AC0C3
:1000E000833051F463E040E00E947E00113021F43F
:1000F00083E063E00E94F7001F910895813029F1A9
:10010000813038F0823009F43CC0833009F06EC091
:1001100053C0413059F42AB381E090E002C0880F07
:10012000991F6A95E2F7282B2ABB0895442309F00A
:100130005DC02AB381E090E002C0880F991F6A95E4
:10014000E2F7809582238ABB0895413059F427B3A2
:1001500081E090E002C0880F991F6A95E2F7282B92
:1001600027BB0895442309F041C027B381E090E004
:1001700002C0880F991F6A95E2F78095822387BB9A
:100180000895413059F424B381E090E002C0880F13
:10019000991F6A95E2F7282B24BB0895442331F573
:1001A00024B381E090E002C0880F991F6A95E2F7BE
:1001B0008095822384BB0895413059F421B381E0B6
:1001C00090E002C0880F991F6A95E2F7282B21BBA7
:1001D0000895442359F421B381E090E002C0880FD0
:1001E000991F6A95E2F78095822381BB089581303B
:1001F00091F0813028F08230C9F0833061F521C060
:100200002BB381E090E002C0880F991F6A95E2F756
:10021000282B2BBB089528B381E090E002C0880F03
:10022000991F6A95E2F7282B28BB089525B381E032
:1002300090E002C0880F991F6A95E2F7282B25BB32
:10024000089522B381E090E002C0880F991F6A955B
:10025000E2F7282B22BB0895813091F0813028F0FD
:100260008230C9F0833061F521C02BB381E090E08A
:1002700002C0880F991F6A95E2F728272BBB0895C3
:1002800028B381E090E002C0880F991F6A95E2F7D9
:10029000282728BB089525B381E090E002C0880F8D
:1002A000991F6A95E2F7282725BB089522B381E0BC
:1002B00090E002C0880F991F6A95E2F7282722BBB9
:1002C0000895813099F0813028F08230D9F0833060
:1002D00081F524C02BB381E090E002C0880F991F04
:1002E0006A95E2F7809582238BBB089528B381E05D
:1002F00090E002C0880F991F6A95E2F780958223EB
:1003000088BB089525B381E090E002C0880F991F53
:100310006A95E2F78095822385BB089522B381E038
:1003200090E002C0880F991F6A95E2F780958223BA
:1003300082BB0895413019F40E94F70008954423C8
:1003400011F40E9461010895813051F0813030F044
:10035000823041F0833079F080E0089589B303C0A2
:1003600086B301C083B390E002C0959587956A95E6
:10037000E2F78170089580B390E002C0959587956B
:100380006A95E2F781700895813049F0813028F054
:10039000823039F0833041F406C06ABB089567BBF0
:1003A000089564BB089561BB0895813049F08130A0
:1003B00028F0823039F0833041F406C06BBB0895D9
:1003C00068BB089565BB089562BB0895FC018081F8
:1003D000823099F0833009F1813059F5828193811F
:1003E00090936100809360008BB780648BBF85B76A
:1003F0008E7F85BF85B78D7F0EC08281938190935C
:100400006300809362008BB780688BBF85B7846080
:1004100085BF85B7877F85BF08958281938190933B
:100420006500809364008BB780628BBF85B78F7B3C
:1004300085BF0895813001F5623079F0633020F492
:10044000613009F047C006C0633069F0643009F0DC
:1004500041C00CC085B78E7F02C085B7816085BF63
:1004600085B78D7F32C085B78E7F02C085B781602A
:1004700085BF85B7826029C08230F1F4623069F0AF
:10048000633018F4613031F505C0633061F06430D9
:1004900009F50CC085B78B7F02C085B7846085BF26
:1004A00085B7877F12C085B78B7F02C085B7846010
:1004B00085BF85B7886009C0833061F4633019F067
:1004C000643041F404C085B78F7B85BF089584B73D
:1004D000806484BF0895823039F0833049F08130E0
:1004E00051F48BB7806402C08BB780688BBF0895CE
:1004F0008BB780628BBF0895823039F0833049F02A
:10050000813051F48BB78F7B02C08BB78F778BBF55
:1005100008958BB78F7D8BBF08951F920F920FB6F2
:100520000F9211242F933F934F935F936F937F9379
:100530008F939F93AF93BF93EF93FF93E0916000EE
:10054000F09161000995FF91EF91BF91AF919F915B
:100550008F917F916F915F914F913F912F910F906C
:100560000FBE0F901F9018951F920F920FB60F920B
:1005700011242F933F934F935F936F937F938F93A8
:100580009F93AF93BF93EF93FF93E0916200F0913D
:1005900063000995FF91EF91BF91AF919F918F916A
:1005A0007F916F915F914F913F912F910F900FBE6F
:1005B0000F901F9018951F920F920FB60F92112453
:1005C0002F933F934F935F936F937F938F939F935B
:1005D000AF93BF93EF93FF93E0916400F0916500B8
:1005E0000995FF91EF91BF91AF919F918F917F916D
:1005F0006F915F914F913F912F910F900FBE0F9090
:100600001F901895EF92FF921F93182F82E066E0DB
:1006100041E00E949A01412F4295417081E064E0DF
:100620000E949A01412F42954695417081E065E014
:100630000E949A01412F429546954695417081E06E
:1006400066E00E949A01412F441F4427441F81E025
:1006500067E00E949A0182E067E041E00E949A010F
:1006600080EAE82E8FE0F82EC7010197F1F782E0CB
:1006700067E040E00E949A01C7010197F1F7412F1E
:10068000417081E064E00E949A01412F46954170DB
:1006900081E065E00E949A0116951695412F417000
:1006A00081E066E00E949A011695117081E067E092
:1006B000412F0E949A0182E067E041E00E949A0186
:1006C000C7010197F1F782E067E040E00E949A01DC
:1006D000C7010197F1F71F91FF90EF900895CF9315
:1006E000DF93EC0103C00E940203219688818823D6
:1006F000D1F7DF91CF9108950F931F93DF93CF939D
:10070000CDB7DEB764970FB6F894DEBF0FBECDBF8E
:10071000DC01CB018E010F5F1F4FB8014AE050E0B2
:100720000E940505C8010E946F0364960FB6F894F5
:10073000DEBF0FBECDBFCF91DF911F910F91089506
:10074000EF92FF921F93182F82E066E040E00E9434
:100750009A01412F4295417081E064E00E949A0124
:10076000412F42954695417081E065E00E949A01D3
:10077000412F429546954695417081E066E00E9482
:100780009A01412F441F4427441F81E067E00E94E3
:100790009A0182E067E041E00E949A0190EAE92E26
:1007A0009FE0F92EC7010197F1F782E067E040E092
:1007B0000E949A01C7010197F1F7412F417081E032
:1007C00064E00E949A01412F4695417081E065E006
:1007D0000E949A0116951695412F417081E066E0BE
:1007E0000E949A011695117081E067E0412F0E94E6
:1007F0009A0182E067E041E00E949A01C7010197F7
:10080000F1F782E067E040E00E949A01C70101979A
:10081000F1F780E29EE40197F1F71F91FF90EF90CE
:100820000895882329F4862F80680E94A0030895E4
:10083000813021F4862F806C0E94A003089581E00E
:100840000E94A00308950F931F9381E064E041E0AC
:100850000E947E0081E065E041E00E947E0081E030
:1008600066E041E00E947E0081E067E041E00E9496
:100870007E0082E067E041E00E947E0082E066E068
:1008800041E00E947E0084EF91E028EC30E0F90125
:100890003197F1F70197D9F782E00E94A00300EDAC
:1008A00017E0C8010197F1F788E20E94A003C80190
:1008B0000197F1F78CE00E94A003C8010197F1F7BE
:1008C00081E00E94A00380E49CE90197F1F786E0B3
:1008D0000E94A00380E80E94A0031F910F91089539
:1008E000853079F0863018F48430A1F40FC086305A
:1008F00029F0873079F483E067E005C083E066E0A3
:1009000002C083E065E00E942C01089583E064E06A
:100910000E942C010895853079F0863018F48430D7
:10092000A1F40FC0863029F0873079F483E067E0C6
:1009300005C083E066E002C083E065E00E946101DB
:10094000089583E064E00E9461010895853079F0A4
:10095000863018F48430A1F40FC0863029F0873037
:1009600079F483E067E005C083E066E002C083E0DD
:1009700065E00E94F700089583E064E00E94F700BC
:100980000895853079F0863018F48430B1F410C0C1
:10099000863029F0873089F483E067E005C083E082
:1009A00066E002C083E065E041E00E947E000895B9
:1009B00083E064E041E00E947E00089587E00E94A9
:1009C000C10486E00E94C10485E00E94C10484E065
:1009D0000E94C10482E060E00E94620082E00E9406
:1009E0003E008823D9F382E00E943E008823D9F795
:1009F00087E00E94A60486E00E94700485E00E94C1
:100A0000700484E00E947004E9CFFB019F01423032
:100A100074F0453264F4642F77270E942B05805DC3
:100A20008A330CF0895D8193CB010097A1F7108286
:100A3000C9010C941B05DC01FC01672F7191772320
:100A4000E1F7329704C07C916D9370836291AE1789
:100A5000BF07C8F30895AA1BBB1B51E107C0AA1F1B
:100A6000BB1FA617B70710F0A61BB70B881F991F4F
:100A70005A95A9F780959095BC01CD010895F894F9
:020A8000FFCFA6
:00000001FF
