:100000000C942A000C94FA0B0C94270C0C94540CAE
:100010000C9447000C9447000C9447000C94470044
:100020000C9447000C9447000C9447000C94470034
:100030000C9447000C9447000C9447000C94470024
:100040000C9447000C9447000C9447000C94470014
:100050000C94470011241FBECFE5D8E0DEBFCDBF12
:1000600010E0A0E6B0E0E2E9F0E302C005900D92F6
:10007000A837B107D9F710E0A8E7B0E001C01D929A
:10008000A238B107E1F70E94AF150C9447180C9401
:100090000000EF92FF920F931F937B018C0120E0F1
:1000A00030E040E05FE40E94490388238CF0C801FF
:1000B000B70120E030E040E05FE40E94C1010E940F
:1000C000A9039B01AC01205030404040504806C07D
:1000D000C801B7010E94A9039B01AC01B901CA0183
:1000E0001F910F91FF90EF900895A0E0B0E0EBE733
:1000F000F0E00C94D617DC012B01FA019C919230B0
:1001000008F439C1EB018881823008F433C194309E
:1001100069F4843009F02FC111969C91119789815F
:10012000981709F428C1AFE6B0E025C1843009F47E
:1001300021C18230A9F4923009F01DC19A01AD01AC
:1001400088E0EA010990AE01E90109929E0181501F
:10015000C1F7E201898111969C918923818308C1AD
:10016000923009F407C112962D903C901397EB0141
:100170008A819B811496AD90BD90CD90DC901797AD
:10018000EC80FD800E811F819101281B390BB90184
:1001900037FF04C066277727621B730B6032710537
:1001A0000CF061C0121613066CF537014801062EDB
:1001B00004C096948794779467940A94D2F721E0C8
:1001C00030E040E050E004C0220F331F441F551FB1
:1001D0006A95D2F721503040404050402E213F21B7
:1001E00040235123211531054105510521F021E01E
:1001F00030E040E050E079018A01E628F72808293C
:1002000019293CC0232BD1F1260E371E350146019A
:10021000062E04C096948794779467940A94D2F734
:1002200021E030E040E050E004C0220F331F441FC3
:10023000551F6A95D2F721503040404050402A2146
:100240003B214C215D21211531054105510521F04E
:1002500021E030E040E050E059016A01A628B728CB
:10026000C828D9280BC0821593052CF01C01AA249C
:10027000BB24650103C0EE24FF24870111969C91E5
:10028000D20111968C91981709F445C0992339F041
:10029000A80197012A193B094C095D0906C0A6016E
:1002A00095012E193F09400B510B57FD08C01182D3
:1002B0003382228224833583468357831DC081E0A5
:1002C00081833382228288279927DC01821B930B4A
:1002D000A40BB50B84839583A683B7830DC0220F2F
:1002E000331F441F551F24833583468357838281E0
:1002F000938101979383828324813581468157813D
:10030000DA01C9010197A109B1098F5F9F4FAF4F72
:10031000BF4328F30BC0918333822282EA0CFB1C7B
:100320000C1D1D1DE482F5820683178383E0808304
:10033000248135814681578157FF1AC0C901AA27F8
:1003400097FDA095BA2F81709070A070B0705695EF
:10035000479537952795822B932BA42BB52B848318
:100360009583A683B7838281938101969383828349
:10037000DF0101C0D201CD01CDB7DEB7E2E10C94BF
:10038000F217A0E2B0E0E7ECF1E00C94E217698329
:100390007A838B839C832D833E834F835887E9E048
:1003A000EE2EF12CEC0EFD1ECE010196B7010E943F
:1003B000D2048E010F5E1F4FCE010596B8010E9438
:1003C000D2048A8991E089278A8BC701B801AE01DE
:1003D000475E5F4F0E9475000E94FD03A096E6E015
:1003E0000C94FE17A0E2B0E0E8EFF1E00C94E21705
:1003F00069837A838B839C832D833E834F835887C5
:10040000F9E0EF2EF12CEC0EFD1ECE010196B701A6
:100410000E94D2048E010F5E1F4FCE010596B801D7
:100420000E94D204C701B801AE01475E5F4F0E942F
:1004300075000E94FD03A096E6E00C94FE17A0E272
:10044000B0E0E5E2F2E00C94D61769837A838B83FF
:100450009C832D833E834F835887CE010196BE0136
:10046000675F7F4F0E94D204CE010596BE016F5E8A
:100470007F4F0E94D2049985923088F0898982301A
:10048000C8F0943019F4823051F404C0843029F457
:10049000923081F48FE690E0C6C0923049F420E0BB
:1004A0009A858A89981321E02A87CE010996BBC0D4
:1004B000823049F420E09A858A89981321E02A8BBA
:1004C000CE014196B0C02D843E844F8458886D88FB
:1004D0007E888F88988CEE24FF248701AA24BB2471
:1004E000650140E050E060E070E0E0E0F0E0C10174
:1004F00081709070892BE9F0E60CF71C081D191D1E
:100500009A01AB012A0D3B1D4C1D5D1D80E090E062
:10051000A0E0B0E0E614F7040805190520F481E036
:1005200090E0A0E0B0E0BA01A901480F591F6A1F8E
:100530007B1FAA0CBB1CCC1CDD1C97FE08C081E0F5
:1005400090E0A0E0B0E0A82AB92ACA2ADB2A3196B6
:10055000E032F10549F0660C771C881C991C569412
:10056000479437942794C3CFFA85EA892B893C892D
:100570008B859C85280F391F2E5F3F4F17C0CA01FE
:1005800081709070892B61F016950795F794E79428
:1005900080E090E0A0E0B0E8E82AF92A0A2B1B2BC3
:1005A00076956795579547952F5F3F4F77FDE7CF36
:1005B0000CC0440F551F661F771F17FD4160EE0CDE
:1005C000FF1C001F111F21503040403090E05907A0
:1005D00090E0690790E4790760F32B8F3C8FDB0193
:1005E000CA018F779070A070B07080349105A1051A
:1005F000B10561F447FD0AC0E114F10401051105DC
:1006000029F0405C5F4F6F4F7F4F40781A8EFE1786
:1006100011F081E08A8F4D8F5E8F6F8F78A383E01A
:10062000898FCE0149960E94FD03A096E2E10C94C9
:10063000F217A8E1B0E0EFE1F3E00C94E217698370
:100640007A838B839C832D833E834F83588789E0F5
:10065000E82EF12CEC0EFD1ECE010196B7010E9492
:10066000D2048E010F5E1F4FCE010596B8010E9485
:10067000D2048985823040F08989823028F0C70110
:10068000B8010E944A0501C08FEF6896E6E00C941D
:10069000FE17A8E1B0E0EFE4F3E00C94E217698301
:1006A0007A838B839C832D833E834F83588789E095
:1006B000E82EF12CEC0EFD1ECE010196B7010E9432
:1006C000D2048E010F5E1F4FCE010596B8010E9425
:1006D000D2048985823040F08989823028F0C701B0
:1006E000B8010E944A0501C08FEF6896E6E00C94BD
:1006F000FE17A8E1B0E0EFE7F3E00C94E21769839E
:100700007A838B839C832D833E834F83588789E034
:10071000E82EF12CEC0EFD1ECE010196B7010E94D1
:10072000D2048E010F5E1F4FCE010596B8010E94C4
:10073000D2048985823040F08989823028F0C7014F
:10074000B8010E944A0501C081E06896E6E00C9479
:10075000FE17ACE0B0E0EFEAF3E00C94E617698333
:100760007A838B839C83CE010196BE016B5F7F4FA2
:100770000E94D2048D81823061F1823050F1843048
:1007800021F48E81882351F12EC02F81388537FDC9
:1007900020C06E812F3131051CF06623F9F023C093
:1007A0008EE190E0821B930B29853A854B855C8511
:1007B00004C056954795379527958A95D2F76623B5
:1007C000B1F050954095309521953F4F4F4F5F4F79
:1007D0000EC020E030E040E050E009C02FEF3FEFD6
:1007E0004FEF5FE704C020E030E040E050E8B9019F
:1007F000CA012C96E2E00C940218DF92EF92FF926D
:100800000F931F93FC01E480F58006811781D1804E
:100810008081823048F480E090E0A0E1B0E0E82AF6
:10082000F92A0A2B1B2BA5C0843009F49FC0823003
:1008300021F4EE24FF24870105C0E114F104010531
:10084000110519F4E0E0F0E096C0628173819FEF3A
:10085000623879070CF05BC022E83FEF261B370BAC
:100860002A3131052CF020E030E040E050E02AC091
:10087000B801A701022E04C0769567955795479554
:100880000A94D2F781E090E0A0E0B0E004C0880FC5
:10089000991FAA1FBB1F2A95D2F70197A109B10979
:1008A0008E219F21A023B1230097A105B10521F03E
:1008B00081E090E0A0E0B0E09A01AB01282B392B59
:1008C0004A2B5B2BDA01C9018F779070A070B07052
:1008D00080349105A105B10539F427FF09C0205CDA
:1008E0003F4F4F4F5F4F04C0215C3F4F4F4F5F4F13
:1008F000E0E0F0E02030A0E03A07A0E04A07A0E402
:100900005A0710F0E1E0F0E079018A0127C0603871
:10091000710564F5FB01E158FF4FD801C7018F77DE
:100920009070A070B07080349105A105B10539F4C4
:10093000E7FE0DC080E490E0A0E0B0E004C08FE3EB
:1009400090E0A0E0B0E0E80EF91E0A1F1B1F17FFA1
:1009500005C016950795F794E794319687E01695AC
:100960000795F794E7948A95D1F705C0EE24FF2404
:100970008701EFEFF0E06E2F679566276795902F60
:100980009F77D794DD24D7948E2F8695492F462BB9
:10099000582F5D29B701CA011F910F91FF90EF9069
:1009A000DF900895FC01DB01408151812281622F9B
:1009B0006F7770E0221F2227221F9381892F880FD3
:1009C000822B282F30E0991F9927991F11969C930D
:1009D000119721153105A9F54115510561057105DD
:1009E00011F482E037C082E89FEF13969C938E93B8
:1009F00012979A01AB0167E0220F331F441F551F66
:100A00006A95D1F783E08C930DC0220F331F441FEA
:100A1000551F12968D919C911397019713969C9355
:100A20008E931297203080E0380780E0480780E4FA
:100A3000580758F314962D933D934D935C93179755
:100A400008952F3F310579F4411551056105710570
:100A500019F484E08C93089564FF03C081E08C93C3
:100A600012C01C9210C02F57304013963C932E9307
:100A7000129783E08C9387E0440F551F661F771F02
:100A80008A95D1F7706414964D935D936D937C9322
:100A9000179708951F93DC01FB019C91923008F495
:100AA00047C08081823008F443C0943051F41196DD
:100AB0001C91843099F58181682F70E0611B710968
:100AC0003FC0843021F0923031F48230B9F181811D
:100AD000882389F12DC011961C9111978230F1F075
:100AE00081811817D9F412962D913C911397828128
:100AF00093818217930794F028173907BCF0149656
:100B00008D919D910D90BC91A02D248135814681C0
:100B10005781281739074A075B0718F4112341F05A
:100B20000AC082179307A407B50740F4112319F0F0
:100B300061E070E005C06FEF7FEF02C060E070E041
:100B4000CB011F910895DF93CF9300D000D00F9277
:100B5000CDB7DEB789836A834B838981282F30E044
:100B60003D832C838C819D818130910509F447C0A0
:100B70002C813D81223031052CF48C819D810097A0
:100B800071F0CBC02C813D812230310509F467C062
:100B90008C819D818330910509F491C0BEC08B8109
:100BA0008130A1F4AAE3B0E0EAE3F0E08081482FCD
:100BB0008A81282F30E081E090E0022E02C0880F69
:100BC000991F0A94E2F7842B8C93A7C08B8188230A
:100BD00009F0A3C0AAE3B0E0EAE3F0E08081482F87
:100BE0008A81282F30E081E090E0022E02C0880F39
:100BF000991F0A94E2F7809584238C938EC08B8191
:100C00008130A1F4A7E3B0E0E7E3F0E08081482F72
:100C10008A81282F30E081E090E0022E02C0880F08
:100C2000991F0A94E2F7842B8C9377C08B818823D9
:100C300009F073C0A7E3B0E0E7E3F0E08081482F5C
:100C40008A81282F30E081E090E0022E02C0880FD8
:100C5000991F0A94E2F7809584238C935EC08B8160
:100C60008130A1F4A4E3B0E0E4E3F0E08081482F18
:100C70008A81282F30E081E090E0022E02C0880FA8
:100C8000991F0A94E2F7842B8C9347C08B818823A9
:100C900009F043C0A4E3B0E0E4E3F0E08081482F32
:100CA0008A81282F30E081E090E0022E02C0880F78
:100CB000991F0A94E2F7809584238C932EC08B8130
:100CC0008130A1F4A1E3B0E0E1E3F0E08081482FBE
:100CD0008A81282F30E081E090E0022E02C0880F48
:100CE000991F0A94E2F7842B8C9317C08B81882379
:100CF000A1F4A1E3B0E0E1E3F0E08081482F8A8134
:100D0000282F30E081E090E0022E02C0880F991F6A
:100D10000A94E2F7809584238C930F900F900F90A4
:100D20000F900F90CF91DF910895DF93CF9300D074
:100D300000D0CDB7DEB789836A838981282F30E060
:100D40003C832B838B819C818130910549F12B81E0
:100D50003C81223031052CF48B819C81009761F01D
:100D60005AC02B813C812230310571F18B819C81ED
:100D700083309105E9F14FC0ABE3B0E0EBE3F0E085
:100D80008081482F8A81282F30E081E090E0022E78
:100D900002C0880F991F0A94E2F7842B8C933BC002
:100DA000A8E3B0E0E8E3F0E08081482F8A81282FB3
:100DB00030E081E090E0022E02C0880F991F0A9473
:100DC000E2F7842B8C9327C0A5E3B0E0E5E3F0E0E5
:100DD0008081482F8A81282F30E081E090E0022E28
:100DE00002C0880F991F0A94E2F7842B8C9313C0DA
:100DF000A2E3B0E0E2E3F0E08081482F8A81282F6F
:100E000030E081E090E0022E02C0880F991F0A9422
:100E1000E2F7842B8C930F900F900F900F90CF914F
:100E2000DF910895DF93CF9300D000D0CDB7DEB728
:100E300089836A838981282F30E03C832B838B81CF
:100E40009C818130910549F12B813C812230310513
:100E50002CF48B819C81009761F05AC02B813C81DE
:100E60002230310571F18B819C8183309105E9F14C
:100E70004FC0ABE3B0E0EBE3F0E08081482F8A8124
:100E8000282F30E081E090E0022E02C0880F991FE9
:100E90000A94E2F784278C933BC0A8E3B0E0E8E330
:100EA000F0E08081482F8A81282F30E081E090E0B7
:100EB000022E02C0880F991F0A94E2F784278C93B0
:100EC00027C0A5E3B0E0E5E3F0E08081482F8A8108
:100ED000282F30E081E090E0022E02C0880F991F99
:100EE0000A94E2F784278C9313C0A2E3B0E0E2E314
:100EF000F0E08081482F8A81282F30E081E090E067
:100F0000022E02C0880F991F0A94E2F784278C935F
:100F10000F900F900F900F90CF91DF910895DF9376
:100F2000CF9300D000D0CDB7DEB789836A838981A3
:100F3000282F30E03C832B838B819C81813091056D
:100F400059F12B813C81223031052CF48B819C811D
:100F5000009769F05FC02B813C812230310589F117
:100F60008B819C818330910509F440C053C0ABE371
:100F7000B0E0EBE3F0E08081482F8A81282F30E059
:100F800081E090E0022E02C0880F991F0A94E2F7D8
:100F9000809584238C933EC0A8E3B0E0E8E3F0E0C2
:100FA0008081482F8A81282F30E081E090E0022E56
:100FB00002C0880F991F0A94E2F7809584238C93CE
:100FC00029C0A5E3B0E0E5E3F0E08081482F8A8105
:100FD000282F30E081E090E0022E02C0880F991F98
:100FE0000A94E2F7809584238C9314C0A2E3B0E0C6
:100FF000E2E3F0E08081482F8A81282F30E081E011
:1010000090E0022E02C0880F991F0A94E2F78095A3
:1010100084238C930F900F900F900F90CF91DF91BE
:101020000895DF93CF9300D00F92CDB7DEB78983B9
:101030006A834B838B81813029F489816A810E9484
:10104000950607C08B81882321F489816A810E94DB
:101050008F070F900F900F90CF91DF910895DF933E
:10106000CF9300D000D00F92CDB7DEB78A836B83C9
:1010700019828A81282F30E03D832C834C815D8149
:101080004130510541F18C819D818230910534F4CC
:101090002C813D812115310561F052C04C815D816B
:1010A0004230510551F18C819D8183309105B9F118
:1010B00047C0E9E3F0E08081282F30E08B81882F62
:1010C00090E0A90102C0559547958A95E2F7CA01BB
:1010D0008170898335C0E6E3F0E08081282F30E01D
:1010E0008B81882F90E0A90102C0559547958A957C
:1010F000E2F7CA018170898323C0E3E3F0E08081D5
:10110000282F30E08B81882F90E0A90102C05595EF
:1011100047958A95E2F7CA018170898311C0E0E39F
:10112000F0E08081282F30E08B81882F90E0A901AA
:1011300002C0559547958A95E2F7CA018170898367
:1011400089810F900F900F900F900F90CF91DF91AA
:101150000895DF93CF9300D000D0CDB7DEB7898359
:101160006A838981282F30E03C832B838B819C818B
:1011700081309105D1F02B813C81223031052CF456
:101180008B819C81009761F01EC02B813C812230B5
:10119000310581F08B819C818330910581F013C0F2
:1011A000EAE3F0E08A8180830EC0E7E3F0E08A8121
:1011B000808309C0E4E3F0E08A81808304C0E1E336
:1011C000F0E08A8180830F900F900F900F90CF9165
:1011D000DF910895DF93CF9300D000D0CDB7DEB775
:1011E00089836A838981282F30E03C832B838B811C
:1011F0009C8181309105D1F02B813C8122303105D9
:101200002CF48B819C81009761F01EC02B813C8166
:101210002230310581F08B819C818330910581F0F2
:1012200013C0EBE3F0E08A8180830EC0E8E3F0E0D6
:101230008A81808309C0E5E3F0E08A81808304C06D
:10124000E2E3F0E08A8180830F900F900F900F907F
:10125000CF91DF910895DF93CF9300D000D0CDB729
:10126000DEB79A838983E981FA81828193819093A1
:10127000790080937800ABE5B0E0EBE5F0E08081A9
:1012800080648C93E981FA818081282F30E03C834F
:101290002B838B819C818230910529F12B813C81AC
:1012A0002330310534F48B819C818130910561F0CC
:1012B00046C02B813C812330310521F18B819C81FB
:1012C0008430910571F13BC0A5E5B0E0E5E5F0E0C3
:1012D00080818E7F8C93A5E5B0E0E5E5F0E080812C
:1012E0008D7F8C932CC0A5E5B0E0E5E5F0E0808132
:1012F00081608C93A5E5B0E0E5E5F0E080818D7F2D
:101300008C931DC0A5E5B0E0E5E5F0E080818E7F1F
:101310008C93A5E5B0E0E5E5F0E0808182608C93F8
:101320000EC0A5E5B0E0E5E5F0E0808181608C933A
:10133000A5E5B0E0E5E5F0E0808182608C930F9058
:101340000F900F900F90CF91DF910895DF93CF937F
:1013500000D000D0CDB7DEB79A838983E981FA81C6
:101360008281938190937B0080937A00ABE5B0E01B
:10137000EBE5F0E0808180688C93E981FA818081DF
:10138000282F30E03C832B838B819C818230910518
:1013900029F12B813C812330310534F48B819C81F0
:1013A0008130910561F046C02B813C8123303105AD
:1013B00021F18B819C818430910571F13BC0A5E5C1
:1013C000B0E0E5E5F0E080818B7F8C93A5E5B0E0AF
:1013D000E5E5F0E08081877F8C932CC0A5E5B0E047
:1013E000E5E5F0E0808184608C93A5E5B0E0E5E57B
:1013F000F0E08081877F8C931DC0A5E5B0E0E5E536
:10140000F0E080818B7F8C93A5E5B0E0E5E5F0E02E
:10141000808188608C930EC0A5E5B0E0E5E5F0E042
:10142000808184608C93A5E5B0E0E5E5F0E0808103
:1014300088608C930F900F900F900F90CF91DF9159
:101440000895DF93CF9300D000D0CDB7DEB79A8355
:101450008983E981FA818281938190937D008093D1
:101460007C00ABE5B0E0EBE5F0E0808180628C933E
:10147000E981FA818081282F30E03C832B838B81A6
:101480009C818330910531F02B813C8124303105E2
:1014900049F00FC0A5E5B0E0E5E5F0E080818F7B85
:1014A0008C9307C0A4E5B0E0E4E5F0E080818064BF
:1014B0008C930F900F900F900F90CF91DF91089524
:1014C000DF93CF9300D000D0CDB7DEB79A83898366
:1014D000E981FA818081282F30E03C832B838B8146
:1014E0009C818230910579F02B813C81233031053C
:1014F00079F08B819C818130910571F489819A8189
:101500000E942B0909C089819A810E94A60904C002
:1015100089819A810E94210A0F900F900F900F905D
:10152000CF91DF910895DF93CF93CDB7DEB72897A2
:101530000FB6F894DEBF0FBECDBF89836A83898161
:10154000813009F05CC08A81282F30E038872F83F2
:101550008F8198858230910529F12F81388523303C
:10156000310534F48F8198858130910561F0C9C0CF
:101570002F8138852330310521F18F819885843082
:10158000910571F1BEC0A5E5B0E0E5E5F0E0808130
:101590008E7F8C93A5E5B0E0E5E5F0E080818D7F5E
:1015A0008C93AFC0A5E5B0E0E5E5F0E08081816017
:1015B0008C93A5E5B0E0E5E5F0E080818D7F8C932C
:1015C000A0C0A5E5B0E0E5E5F0E080818E7F8C93DA
:1015D000A5E5B0E0E5E5F0E0808182608C9391C004
:1015E000A5E5B0E0E5E5F0E0808181608C93A5E5BC
:1015F000B0E0E5E5F0E0808182608C9382C0898173
:10160000823009F05CC08A81282F30E03E832D8330
:101610008D819E818230910529F12D813E8123307B
:10162000310534F48D819E818130910561F069C06E
:101630002D813E812330310521F18D819E818430C1
:10164000910571F15EC0A5E5B0E0E5E5F0E08081CF
:101650008B7F8C93A5E5B0E0E5E5F0E08081877FA6
:101660008C934FC0A5E5B0E0E5E5F0E080818460B3
:101670008C93A5E5B0E0E5E5F0E08081877F8C9371
:1016800040C0A5E5B0E0E5E5F0E080818B7F8C937C
:10169000A5E5B0E0E5E5F0E0808188608C9331C09D
:1016A000A5E5B0E0E5E5F0E0808184608C93A5E5F8
:1016B000B0E0E5E5F0E0808188608C9322C089810C
:1016C0008330F9F48A81282F30E03C832B838B818F
:1016D0009C818330910531F02B813C812430310590
:1016E00049F00FC0A5E5B0E0E5E5F0E080818F7B33
:1016F0008C9307C0A4E5B0E0E4E5F0E0808180646D
:101700008C9328960FB6F894DEBF0FBECDBFCF9155
:10171000DF910895DF93CF9300D00F92CDB7DEB75E
:1017200089838981282F30E03B832A838A819B81AA
:101730008230910591F02A813B8123303105A9F057
:101740008A819B8181309105B9F4ABE5B0E0EBE58E
:10175000F0E0808180648C930FC0ABE5B0E0EBE5F6
:10176000F0E0808180688C9307C0ABE5B0E0EBE5EA
:10177000F0E0808180628C930F900F900F90CF915A
:10178000DF910895DF93CF9300D00F92CDB7DEB7EE
:1017900089838981282F30E03B832A838A819B813A
:1017A0008230910591F02A813B8123303105A9F0E7
:1017B0008A819B8181309105B9F4ABE5B0E0EBE51E
:1017C000F0E080818F7B8C930FC0ABE5B0E0EBE560
:1017D000F0E080818F778C9307C0ABE5B0E0EBE55C
:1017E000F0E080818F7D8C930F900F900F90CF91C0
:1017F000DF9108951F920F920FB60F9211242F932D
:101800003F934F935F936F937F938F939F93AF9388
:10181000BF93EF93FF93DF93CF93CDB7DEB7E09104
:101820007800F09179000995CF91DF91FF91EF91C8
:10183000BF91AF919F918F917F916F915F914F91E8
:101840003F912F910F900FBE0F901F9018951F92F0
:101850000F920FB60F9211242F933F934F935F93E4
:101860006F937F938F939F93AF93BF93EF93FF9368
:10187000DF93CF93CDB7DEB7E0917A00F0917B0094
:101880000995CF91DF91FF91EF91BF91AF919F911A
:101890008F917F916F915F914F913F912F910F9019
:1018A0000FBE0F901F9018951F920F920FB60F92B8
:1018B00011242F933F934F935F936F937F938F9355
:1018C0009F93AF93BF93EF93FF93DF93CF93CDB7E6
:1018D000DEB7E0917C00F0917D000995CF91DF911A
:1018E000FF91EF91BF91AF919F918F917F916F91F8
:1018F0005F914F913F912F910F900FBE0F901F90CE
:1019000018950F931F93DF93CF93CDB7DEB7C654CF
:10191000D0400FB6F894DEBF0FBECDBF81E064E0CB
:1019200041E00E94A30581E065E041E00E94A3053B
:1019300081E066E041E00E94A30581E067E041E0CC
:101940000E94A30582E067E041E00E94A30582E0D7
:1019500066E041E00E94A305FE01ED5BFF4F80E0E1
:1019600090E0A8E4B2E480839183A283B3838E01E4
:10197000015C1F4FFE01ED5BFF4F60817181828131
:10198000938120E030E04AEF54E40E941F02DC0122
:10199000CB01F80180839183A283B383FE01FF967C
:1019A000608171818281938120E030E040E85FE3D3
:1019B0000E94790388232CF481E090E09EAF8DAFE4
:1019C00046C0FE01FF96608171818281938120E093
:1019D0003FEF4FE757E40E941903181664F5FE0124
:1019E000ED5BFF4F608171818281938120E030E067
:1019F00040E251E40E941F02DC01CB01BC01CD0199
:101A00000E944900DC01CB019EAF8DAF0FC088EC76
:101A100090E09CAF8BAF8BAD9CAD0197F1F79CAF85
:101A20008BAF8DAD9EAD01979EAF8DAF8DAD9EAD51
:101A3000009769F716C0FE01FF966081718182816F
:101A400093810E944900DC01CB019EAF8DAF8DAD2B
:101A50009EAD9AAF89AF89AD9AAD0197F1F79AAF74
:101A600089AF82E00E94170F80E090E0A0E8BFE31A
:101A70008DAB9EABAFABB8AF6DA97EA98FA998AD6A
:101A800020E030E04AEF54E40E941F02DC01CB0169
:101A900089AB9AABABABBCAB69A97AA98BA99CA962
:101AA00020E030E040E85FE30E94790388232CF4D3
:101AB00081E090E098AB8FA73FC069A97AA98BA974
:101AC0009CA920E03FEF4FE757E40E941903181646
:101AD0004CF56DA97EA98FA998AD20E030E040E2D9
:101AE00051E40E941F02DC01CB01BC01CD010E9428
:101AF0004900DC01CB0198AB8FA70FC088EC90E0C8
:101B00009EA78DA78DA59EA50197F1F79EA78DA7EE
:101B10008FA598A9019798AB8FA78FA598A9009733
:101B200069F714C069A97AA98BA99CA90E944900E8
:101B3000DC01CB0198AB8FA78FA598A99CA78BA799
:101B40008BA59CA50197F1F79CA78BA788E20E9423
:101B5000170F80E090E0A0E8BFE38FA398A7A9A7A4
:101B6000BAA76FA178A589A59AA520E030E04AEF31
:101B700054E40E941F02DC01CB018BA39CA3ADA304
:101B8000BEA36BA17CA18DA19EA120E030E040E826
:101B90005FE30E94790388232CF481E090E09AA30C
:101BA00089A33FC06BA17CA18DA19EA120E03FEF46
:101BB0004FE757E40E94190318164CF56FA178A55A
:101BC00089A59AA520E030E040E251E40E941F027E
:101BD000DC01CB01BC01CD010E944900DC01CB013D
:101BE0009AA389A30FC088EC90E098A38F8F8F8D64
:101BF00098A10197F1F798A38F8F89A19AA10197D6
:101C00009AA389A389A19AA1009769F714C06BA12F
:101C10007CA18DA19EA10E944900DC01CB019AA369
:101C200089A389A19AA19E8F8D8F8D8D9E8D0197FD
:101C3000F1F79E8F8D8F8CE00E94170F80E090E06F
:101C4000A0E8BFE3898F9A8FAB8FBC8F698D7A8DA7
:101C50008B8D9C8D20E030E04AEF54E40E941F02FF
:101C6000DC01CB018D8B9E8BAF8BB88F6D897E890C
:101C70008F89988D20E030E040E85FE30E9479038F
:101C800088232CF481E090E09C8B8B8B3FC06D8986
:101C90007E898F89988D20E03FEF4FE757E40E94BF
:101CA000190318164CF5698D7A8D8B8D9C8D20E06B
:101CB00030E040E251E40E941F02DC01CB01BC0194
:101CC000CD010E944900DC01CB019C8B8B8B0FC0A6
:101CD00088EC90E09A8B898B89899A890197F1F732
:101CE0009A8B898B8B899C8901979C8B8B8B8B8999
:101CF0009C89009769F714C06D897E898F89988DBA
:101D00000E944900DC01CB019C8B8B8B8B899C89C9
:101D1000988B8F878F8598890197F1F7988B8F879C
:101D200081E00E94170F80E090E0A0EAB1E48B8789
:101D30009C87AD87BE876B857C858D859E8520E0E1
:101D400030E04AEF54E40E941F02DC01CB018F8394
:101D50009887A987BA876F81788589859A8520E0D9
:101D600030E040E85FE30E94790388232CF481E0AF
:101D700090E09E838D833FC06F81788589859A85A9
:101D800020E03FEF4FE757E40E94190318164CF587
:101D90006B857C858D859E8520E030E040E251E4B6
:101DA0000E941F02DC01CB01BC01CD010E94490051
:101DB000DC01CB019E838D830FC088EC90E09C8377
:101DC0008B838B819C810197F1F79C838B838D8121
:101DD0009E8101979E838D838D819E81009769F7F7
:101DE00014C06F81788589859A850E944900DC013D
:101DF000CB019E838D838D819E819A838983898186
:101E00009A810197F1F79A83898386E00E94170FE0
:101E100080E80E94170FCA5BDF4F0FB6F894DEBF51
:101E20000FBECDBFCF91DF911F910F9108950F93FA
:101E30001F93DF93CF93CDB7DEB7C754D0400FB613
:101E4000F894DEBF0FBECDBFFE01E95BFF4F80837C
:101E500082E066E040E00E941108FE01E95BFF4F6E
:101E6000808182958F70982F917081E064E0492F76
:101E70000E941108FE01E95BFF4F808182958695E3
:101E80008770982F917081E065E0492F0E941108BA
:101E9000FE01E95BFF4F8081829586958695837070
:101EA000982F917081E066E0492F0E941108FE0191
:101EB000E95BFF4F8081982F991F9927991F81E037
:101EC00067E0492F0E94110882E067E041E00E942C
:101ED0001108FE01ED5BFF4F80E090E0A0E0B0E470
:101EE00080839183A283B3838E01015C1F4FFE0127
:101EF000ED5BFF4F608171818281938120E030E052
:101F00004AEF54E40E941F02DC01CB01F8018083F8
:101F10009183A283B383FE01FF96608171818281E8
:101F2000938120E030E040E85FE30E94790388235A
:101F30002CF481E090E09EAF8DAF46C0FE01FF968D
:101F4000608171818281938120E03FEF4FE757E408
:101F50000E941903181664F5FE01ED5BFF4F6081C6
:101F600071818281938120E030E040E251E40E945F
:101F70001F02DC01CB01BC01CD010E944900DC0144
:101F8000CB019EAF8DAF0FC088EC90E09CAF8BAFC4
:101F90008BAD9CAD0197F1F79CAF8BAF8DAD9EAD36
:101FA00001979EAF8DAF8DAD9EAD009769F716C0BE
:101FB000FE01FF9660817181828193810E944900B8
:101FC000DC01CB019EAF8DAF8DAD9EAD9AAF89AFD9
:101FD00089AD9AAD0197F1F79AAF89AF82E067E0DA
:101FE00040E00E94110880E090E0A0E0B0E48DABFA
:101FF0009EABAFABB8AF6DA97EA98FA998AD20E01D
:1020000030E04AEF54E40E941F02DC01CB0189ABAF
:102010009AABABABBCAB69A97AA98BA99CA920E010
:1020200030E040E85FE30E94790388232CF481E0EC
:1020300090E098AB8FA73FC069A97AA98BA99CA90A
:1020400020E03FEF4FE757E40E94190318164CF5C4
:102050006DA97EA98FA998AD20E030E040E251E45F
:102060000E941F02DC01CB01BC01CD010E9449008E
:10207000DC01CB0198AB8FA70FC088EC90E09EA746
:102080008DA78DA59EA50197F1F79EA78DA78FA57A
:1020900098A9019798AB8FA78FA598A9009769F782
:1020A00014C069A97AA98BA99CA90E944900DC01E6
:1020B000CB0198AB8FA78FA598A99CA78BA78BA5C1
:1020C0009CA50197F1F79CA78BA7FE01E95BFF4F49
:1020D0008081982F917081E064E0492F0E9411085F
:1020E000FE01E95BFF4F80818695982F917081E01A
:1020F00065E0492F0E941108FE01E95BFF4F8081D6
:1021000086958695982F917081E066E0492F0E9410
:102110001108FE01E95BFF4F8081869586958695C3
:10212000982F917081E067E0492F0E94110882E0AA
:1021300067E041E00E94110880E090E0A0E0B0E498
:102140008FA398A7A9A7BAA76FA178A589A59AA5D3
:1021500020E030E04AEF54E40E941F02DC01CB0192
:102160008BA39CA3ADA3BEA36BA17CA18DA19EA1BB
:1021700020E030E040E85FE30E94790388232CF4FC
:1021800081E090E09AA389A33FC06BA17CA18DA1BF
:102190009EA120E03FEF4FE757E40E941903181675
:1021A0004CF56FA178A589A59AA520E030E040E222
:1021B00051E40E941F02DC01CB01BC01CD010E9451
:1021C0004900DC01CB019AA389A30FC088EC90E001
:1021D00098A38F8F8F8D98A10197F1F798A38F8F78
:1021E00089A19AA101979AA389A389A19AA100978D
:1021F00069F714C06BA17CA18DA19EA10E9449002A
:10220000DC01CB019AA389A389A19AA19E8F8D8F0E
:102210008D8D9E8D0197F1F79E8F8D8F82E067E007
:1022200040E00E94110880E090E0A0E0B0E4898FD7
:102230009A8FAB8FBC8F698D7A8D8B8D9C8D20E0B2
:1022400030E04AEF54E40E941F02DC01CB018D8B89
:102250009E8BAF8BB88F6D897E898F89988D20E09A
:1022600030E040E85FE30E94790388232CF481E0AA
:1022700090E09C8B8B8B3FC06D897E898F89988D78
:1022800020E03FEF4FE757E40E94190318164CF582
:10229000698D7A8D8B8D9C8D20E030E040E251E499
:1022A0000E941F02DC01CB01BC01CD010E9449004C
:1022B000DC01CB019C8B8B8B0FC088EC90E09A8B60
:1022C000898B89899A890197F1F79A8B898B8B89F8
:1022D0009C8901979C8B8B8B8B899C89009769F7D4
:1022E00014C06D897E898F89988D0E944900DC0118
:1022F000CB019C8B8B8B8B899C89988B8F878F854F
:1023000098890197F1F7988B8F8780E090E0A0E2A1
:10231000B1E48B879C87AD87BE876B857C858D8577
:102320009E8520E030E04AEF54E40E941F02DC0169
:10233000CB018F839887A987BA876F817885898534
:102340009A8520E030E040E85FE30E94790388232B
:102350002CF481E090E09E838D833FC06F8178856F
:1023600089859A8520E03FEF4FE757E40E941903E3
:1023700018164CF56B857C858D859E8520E030E0B8
:1023800040E251E40E941F02DC01CB01BC01CD01FF
:102390000E944900DC01CB019E838D830FC088EC35
:1023A00090E09C838B838B819C810197F1F79C83C8
:1023B0008B838D819E8101979E838D838D819E81EC
:1023C000009769F714C06F81788589859A850E9486
:1023D0004900DC01CB019E838D838D819E819A8390
:1023E000898389819A810197F1F79A838983C95BEF
:1023F000DF4F0FB6F894DEBF0FBECDBFCF91DF9198
:102400001F910F910895DF93CF93CDB7DEB7E99772
:102410000FB6F894DEBF0FBECDBF89AF82E066E095
:1024200041E00E94110889AD82958F70982F9170BC
:1024300081E064E0492F0E94110889AD829586955C
:102440008770982F917081E065E0492F0E941108F4
:1024500089AD8295869586958370982F917081E0DD
:1024600066E0492F0E94110889AD982F991F99277E
:10247000991F81E067E0492F0E94110882E067E020
:1024800041E00E94110880E090E0A0E0B0E48DAB54
:102490009EABAFABB8AF6DA97EA98FA998AD20E078
:1024A00030E04AEF54E40E941F02DC01CB0189AB0B
:1024B0009AABABABBCAB69A97AA98BA99CA920E06C
:1024C00030E040E85FE30E94790388232CF481E048
:1024D00090E098AB8FA73FC069A97AA98BA99CA966
:1024E00020E03FEF4FE757E40E94190318164CF520
:1024F0006DA97EA98FA998AD20E030E040E251E4BB
:102500000E941F02DC01CB01BC01CD010E944900E9
:10251000DC01CB0198AB8FA70FC088EC90E09EA7A1
:102520008DA78DA59EA50197F1F79EA78DA78FA5D5
:1025300098A9019798AB8FA78FA598A9009769F7DD
:1025400014C069A97AA98BA99CA90E944900DC0141
:10255000CB0198AB8FA78FA598A99CA78BA78BA51C
:102560009CA50197F1F79CA78BA782E067E040E06C
:102570000E94110880E090E0A0E0B0E48FA398A74B
:10258000A9A7BAA76FA178A589A59AA520E030E0F0
:102590004AEF54E40E941F02DC01CB018BA39CA3F1
:1025A000ADA3BEA36BA17CA18DA19EA120E030E0D4
:1025B00040E85FE30E94790388232CF481E090E0F7
:1025C0009AA389A33FC06BA17CA18DA19EA120E00D
:1025D0003FEF4FE757E40E94190318164CF56FA11F
:1025E00078A589A59AA520E030E040E251E40E9458
:1025F0001F02DC01CB01BC01CD010E944900DC01BE
:10260000CB019AA389A30FC088EC90E098A38F8F89
:102610008F8D98A10197F1F798A38F8F89A19AA127
:1026200001979AA389A389A19AA1009769F714C079
:102630006BA17CA18DA19EA10E944900DC01CB0170
:102640009AA389A389A19AA19E8F8D8F8D8D9E8D2E
:102650000197F1F79E8F8D8F89AD982F917081E052
:1026600064E0492F0E94110889AD8695982F9170DA
:1026700081E065E0492F0E94110889AD8695869515
:10268000982F917081E066E0492F0E94110889AD72
:10269000869586958695982F917081E067E0492F01
:1026A0000E94110882E067E041E00E94110880E08A
:1026B00090E0A0E0B0E4898F9A8FAB8FBC8F698DDA
:1026C0007A8D8B8D9C8D20E030E04AEF54E40E949F
:1026D0001F02DC01CB018D8B9E8BAF8BB88F6D8978
:1026E0007E898F89988D20E030E040E85FE30E948A
:1026F000790388232CF481E090E09C8B8B8B3FC086
:102700006D897E898F89988D20E03FEF4FE757E4F0
:102710000E94190318164CF5698D7A8D8B8D9C8D4E
:1027200020E030E040E251E40E941F02DC01CB01D6
:10273000BC01CD010E944900DC01CB019C8B8B8B3D
:102740000FC088EC90E09A8B898B89899A890197D0
:10275000F1F79A8B898B8B899C8901979C8B8B8B4A
:102760008B899C89009769F714C06D897E898F8950
:10277000988D0E944900DC01CB019C8B8B8B8B894F
:102780009C89988B8F878F8598890197F1F7988B13
:102790008F8782E067E040E00E94110880E090E0CF
:1027A000A0E0B0E48B879C87AD87BE876B857C8576
:1027B0008D859E8520E030E04AEF54E40E941F02A0
:1027C000DC01CB018F839887A987BA876F817885D1
:1027D00089859A8520E030E040E85FE30E94790334
:1027E00088232CF481E090E09E838D833FC06F812D
:1027F000788589859A8520E03FEF4FE757E40E946E
:10280000190318164CF56B857C858D859E8520E017
:1028100030E040E251E40E941F02DC01CB01BC0128
:10282000CD010E944900DC01CB019E838D830FC046
:1028300088EC90E09C838B838B819C810197F1F7DE
:102840009C838B838D819E8101979E838D838D8157
:102850009E81009769F714C06F81788589859A8574
:102860000E944900DC01CB019E838D838D819E8176
:102870009A83898389819A810197F1F79A83898361
:10288000E9960FB6F894DEBF0FBECDBFCF91DF91B2
:102890000895DF93CF9300D0CDB7DEB79A838983B5
:1028A0000AC0E981FA8180810E94031289819A819C
:1028B00001969A838983E981FA818081882389F747
:1028C0000F900F90CF91DF910895DF93CF93CDB705
:1028D000DEB768970FB6F894DEBF0FBECDBF6D8B25
:1028E0007E8B8F8B988F8D899E899E012F5F3F4FA6
:1028F000B9014AE050E00E940D18CE0101960E94F5
:10290000491468960FB6F894DEBF0FBECDBFCF91C5
:10291000DF910895DF93CF93CDB7DEB781E00E94BA
:10292000170FCF91DF910895DF93CF9300D0CDB7EC
:10293000DEB789836A838981882329F48A81806844
:102940000E94170F07C08981813021F48A81806C31
:102950000E94170F0F900F90CF91DF910895DF9392
:10296000CF9300D00F92CDB7DEB789838981282F0E
:1029700030E03B832A838A819B818530910509F170
:102980002A813B812630310534F48A819B81843051
:102990009105E9F021C02A813B812630310559F0AB
:1029A0008A819B8187309105B9F483E067E041E03B
:1029B0000E94A30511C083E066E041E00E94A305E8
:1029C0000BC083E065E041E00E94A30505C083E001
:1029D00064E041E00E94A3050F900F900F90CF910B
:1029E000DF910895DF93CF9300D00F92CDB7DEB77C
:1029F00089838981282F30E03B832A838A819B81C8
:102A000085309105F9F02A813B812630310534F477
:102A10008A819B8184309105D1F01DC02A813B8140
:102A20002630310551F08A819B818730910599F4D8
:102A300083E067E00E9495060EC083E066E00E9496
:102A4000950609C083E065E00E94950604C083E016
:102A500064E00E9495060F900F900F90CF91DF9148
:102A60000895DF93CF9300D00F92CDB7DEB789835F
:102A70008981282F30E03B832A838A819B8185309E
:102A80009105F9F02A813B812630310534F48A81A1
:102A90009B8184309105D1F01DC02A813B81263075
:102AA000310551F08A819B818730910599F483E04B
:102AB00067E00E948F070EC083E066E00E948F07E8
:102AC00009C083E065E00E948F0704C083E064E0F2
:102AD0000E948F070F900F900F90CF91DF91089574
:102AE000DF93CF9300D00F92CDB7DEB78983898172
:102AF000282F30E03B832A838A819B818530910592
:102B0000F9F02A813B812630310534F48A819B819A
:102B100084309105D1F01DC02A813B8126303105DA
:102B200051F08A819B818730910599F483E067E0B9
:102B30000E9412070EC083E066E00E94120709C0DF
:102B400083E065E00E94120704C083E064E00E9415
:102B500012070F900F900F90CF91DF910895DF93A0
:102B6000CF93CDB7DEB7AA970FB6F894DEBF0FBEEE
:102B7000CDBF87E00E94AF1486E00E94AF1485E0CD
:102B80000E94AF1484E00E94AF140E94810C0E9446
:102B90008A1480E690E00E94491480E090E0AAE761
:102BA000B4E48FA398A7A9A7BAA76FA178A589A510
:102BB0009AA520E030E04AEF54E40E941F02DC01B5
:102BC000CB018BA39CA3ADA3BEA36BA17CA18DA1C4
:102BD0009EA120E030E040E85FE30E947903882373
:102BE0002CF481E090E09AA389A33FC06BA17CA163
:102BF0008DA19EA120E03FEF4FE757E40E9419030B
:102C000018164CF56FA178A589A59AA520E030E0AB
:102C100040E251E40E941F02DC01CB01BC01CD0166
:102C20000E944900DC01CB019AA389A30FC088EC64
:102C300090E098A38F8F8F8D98A10197F1F798A3BB
:102C40008F8F89A19AA101979AA389A389A19AA19B
:102C5000009769F714C06BA17CA18DA19EA10E9471
:102C60004900DC01CB019AA389A389A19AA19E8F77
:102C70008D8F8D8D9E8D0197F1F79E8F8D8F8BE4BB
:102C800097E1909381008093800084E080937F009F
:102C900081E080937E008EE790E00E94600A85E6E6
:102CA00090E00E94491480E090E0AAE7B4E4898FA4
:102CB0009A8FAB8FBC8F698D7A8D8B8D9C8D20E028
:102CC00030E04AEF54E40E941F02DC01CB018D8BFF
:102CD0009E8BAF8BB88F6D897E898F89988D20E010
:102CE00030E040E85FE30E94790388232CF481E020
:102CF00090E09C8B8B8B3FC06D897E898F89988DEE
:102D000020E03FEF4FE757E40E94190318164CF5F7
:102D1000698D7A8D8B8D9C8D20E030E040E251E40E
:102D20000E941F02DC01CB01BC01CD010E944900C1
:102D3000DC01CB019C8B8B8B0FC088EC90E09A8BD5
:102D4000898B89899A890197F1F79A8B898B8B896D
:102D50009C8901979C8B8B8B8B899C89009769F749
:102D600014C06D897E898F89988D0E944900DC018D
:102D7000CB019C8B8B8B8B899C89988B8F878F85C4
:102D800098890197F1F7988B8F8778940E948A141D
:102D90008AE690E00E94491480E090E0AAE7B4E45B
:102DA0008B879C87AD87BE876B857C858D859E854F
:102DB00020E030E04AEF54E40E941F02DC01CB0126
:102DC0008F839887A987BA876F81788589859A8547
:102DD00020E030E040E85FE30E94790388232CF490
:102DE00081E090E09E838D833FC06F8178858985E7
:102DF0009A8520E03FEF4FE757E40E941903181629
:102E00004CF56B857C858D859E8520E030E040E229
:102E100051E40E941F02DC01CB01BC01CD010E94E4
:102E20004900DC01CB019E838D830FC088EC90E0CC
:102E30009C838B838B819C810197F1F79C838B838F
:102E40008D819E8101979E838D838D819E810097C8
:102E500069F714C06F81788589859A850E94490039
:102E6000DC01CB019E838D838D819E819A83898332
:102E700089819A810197F1F79A83898387E00E947B
:102E8000F21486E00E94F21485E00E94F21484E0BD
:102E90000E94F214F3CFDF93CF93CDB7DEB72E9716
:102EA0000FB6F894DEBF0FBECDBF87E00E9431158C
:102EB00086E00E94F21480E090E0AAEFB4E48B87F1
:102EC0009C87AD87BE876B857C858D859E8520E040
:102ED00030E04AEF54E40E941F02DC01CB018F83F3
:102EE0009887A987BA876F81788589859A8520E038
:102EF00030E040E85FE30E94790388232CF481E00E
:102F000090E09E838D833FC06F81788589859A8507
:102F100020E03FEF4FE757E40E94190318164CF5E5
:102F20006B857C858D859E8520E030E040E251E414
:102F30000E941F02DC01CB01BC01CD010E944900AF
:102F4000DC01CB019E838D830FC088EC90E09C83D5
:102F50008B838B819C810197F1F79C838B838D817F
:102F60009E8101979E838D838D819E81009769F755
:102F700014C06F81788589859A850E944900DC019B
:102F8000CB019E838D838D819E819A8389838981E4
:102F90009A810197F1F79A8389832E960FB6F89458
:102FA000DEBF0FBECDBFCF91DF9108952F923F922C
:102FB0004F925F926F927F928F929F92AF92BF9249
:102FC000CF92DF92EF92FF920F931F93CF93DF93F5
:102FD000CDB7DEB7CA1BDB0B0FB6F894DEBF0FBE52
:102FE000CDBF09942A88398848885F846E847D849F
:102FF0008C849B84AA84B984C884DF80EE80FD80A1
:103000000C811B81AA81B981CE0FD11D0FB6F89416
:10301000DEBF0FBECDBFED010895FB019F01423021
:1030200074F0453264F4642F77270E943318805D72
:103030008A330CF0895D8193CB010097A1F7108250
:10304000C9010C942318DC01FC01672F71917723CF
:10305000E1F7329704C07C916D9370836291AE1753
:10306000BF07C8F30895AA1BBB1B51E107C0AA1FE5
:10307000BB1FA617B70710F0A61BB70B881F991F19
:103080005A95A9F780959095BC01CD010895F894C3
:02309000FFCF70
:1030920068692031006869203200686920330000C5
:0830A200000000000000000026
:00000001FF
