:100000000C942A000C9437090C945E090C94850911
:100010000C9447000C9447000C9447000C94470044
:100020000C9447000C9447000C9447000C94470034
:100030000C9447000C9447000C9447000C94470024
:100040000C9447000C9447000C9447000C94470014
:100050000C94470011241FBECFE5D8E0DEBFCDBF12
:1000600011E0A8E6B1E001C01D92AE36B107E1F79C
:1000700011E0A0E6B0E0E2EBFBE102C005900D92DA
:10008000A836B107D9F70E943F0D0C94D70D0C94F8
:100090000000EF92FF920F931F937B018C0120E0F1
:1000A00030E040E05FE40E94490388238CF0C801FF
:1000B000B70120E030E040E05FE40E94C1010E940F
:1000C000A9039B01AC01205030404040504806C07D
:1000D000C801B7010E94A9039B01AC01B901CA0183
:1000E0001F910F91FF90EF900895A0E0B0E0EBE733
:1000F000F0E00C94660DDC012B01FA019C9192302A
:1001000008F439C1EB018881823008F433C194309E
:1001100069F4843009F02FC111969C91119789815F
:10012000981709F428C1A0E6B0E025C1843009F48D
:1001300021C18230A9F4923009F01DC19A01AD01AC
:1001400088E0EA010990AE01E90109929E0181501F
:10015000C1F7E201898111969C918923818308C1AD
:10016000923009F407C112962D903C901397EB0141
:100170008A819B811496AD90BD90CD90DC901797AD
:10018000EC80FD800E811F819101281B390BB90184
:1001900037FF04C066277727621B730B6032710537
:1001A0000CF061C0121613066CF537014801062EDB
:1001B00004C096948794779467940A94D2F721E0C8
:1001C00030E040E050E004C0220F331F441F551FB1
:1001D0006A95D2F721503040404050402E213F21B7
:1001E00040235123211531054105510521F021E01E
:1001F00030E040E050E079018A01E628F72808293C
:1002000019293CC0232BD1F1260E371E350146019A
:10021000062E04C096948794779467940A94D2F734
:1002200021E030E040E050E004C0220F331F441FC3
:10023000551F6A95D2F721503040404050402A2146
:100240003B214C215D21211531054105510521F04E
:1002500021E030E040E050E059016A01A628B728CB
:10026000C828D9280BC0821593052CF01C01AA249C
:10027000BB24650103C0EE24FF24870111969C91E5
:10028000D20111968C91981709F445C0992339F041
:10029000A80197012A193B094C095D0906C0A6016E
:1002A00095012E193F09400B510B57FD08C01182D3
:1002B0003382228224833583468357831DC081E0A5
:1002C00081833382228288279927DC01821B930B4A
:1002D000A40BB50B84839583A683B7830DC0220F2F
:1002E000331F441F551F24833583468357838281E0
:1002F000938101979383828324813581468157813D
:10030000DA01C9010197A109B1098F5F9F4FAF4F72
:10031000BF4328F30BC0918333822282EA0CFB1C7B
:100320000C1D1D1DE482F5820683178383E0808304
:10033000248135814681578157FF1AC0C901AA27F8
:1003400097FDA095BA2F81709070A070B0705695EF
:10035000479537952795822B932BA42BB52B848318
:100360009583A683B7838281938101969383828349
:10037000DF0101C0D201CD01CDB7DEB7E2E10C94BF
:10038000820DA0E2B0E0E7ECF1E00C94720D69831D
:100390007A838B839C832D833E834F835887E9E048
:1003A000EE2EF12CEC0EFD1ECE010196B7010E943F
:1003B0009A058E010F5E1F4FCE010596B8010E946F
:1003C0009A058A8991E089278A8BC701B801AE0115
:1003D000475E5F4F0E9475000E94C504A096E6E04C
:1003E0000C948E0DA0E2B0E0E8EFF1E00C94720DF9
:1003F00069837A838B839C832D833E834F835887C5
:10040000F9E0EF2EF12CEC0EFD1ECE010196B701A6
:100410000E949A058E010F5E1F4FCE010596B8010E
:100420000E949A05C701B801AE01475E5F4F0E9466
:1004300075000E94C504A096E6E00C948E0DA0E223
:10044000B0E0E5E2F2E00C94660D69837A838B8379
:100450009C832D833E834F835887CE010196BE0136
:10046000675F7F4F0E949A05CE010596BE016F5EC1
:100470007F4F0E949A059985923088F08989823051
:10048000C8F0943019F4823051F404C0843029F457
:10049000923081F480E690E0C6C0923049F420E0CA
:1004A0009A858A89981321E02A87CE010996BBC0D4
:1004B000823049F420E09A858A89981321E02A8BBA
:1004C000CE014196B0C02D843E844F8458886D88FB
:1004D0007E888F88988CEE24FF248701AA24BB2471
:1004E000650140E050E060E070E0E0E0F0E0C10174
:1004F00081709070892BE9F0E60CF71C081D191D1E
:100500009A01AB012A0D3B1D4C1D5D1D80E090E062
:10051000A0E0B0E0E614F7040805190520F481E036
:1005200090E0A0E0B0E0BA01A901480F591F6A1F8E
:100530007B1FAA0CBB1CCC1CDD1C97FE08C081E0F5
:1005400090E0A0E0B0E0A82AB92ACA2ADB2A3196B6
:10055000E032F10549F0660C771C881C991C569412
:10056000479437942794C3CFFA85EA892B893C892D
:100570008B859C85280F391F2E5F3F4F17C0CA01FE
:1005800081709070892B61F016950795F794E79428
:1005900080E090E0A0E0B0E8E82AF92A0A2B1B2BC3
:1005A00076956795579547952F5F3F4F77FDE7CF36
:1005B0000CC0440F551F661F771F17FD4160EE0CDE
:1005C000FF1C001F111F21503040403090E05907A0
:1005D00090E0690790E4790760F32B8F3C8FDB0193
:1005E000CA018F779070A070B07080349105A1051A
:1005F000B10561F447FD0AC0E114F10401051105DC
:1006000029F0405C5F4F6F4F7F4F40781A8EFE1786
:1006100011F081E08A8F4D8F5E8F6F8F78A383E01A
:10062000898FCE0149960E94C504A096E2E10C9400
:10063000820DA8E1B0E0EFE1F3E00C94720D698364
:100640007A838B839C832D833E834F83588789E0F5
:10065000E82EF12CEC0EFD1ECE010196B7010E9492
:100660009A058E010F5E1F4FCE010596B8010E94BC
:100670009A058985823040F08989823028F0C70147
:10068000B8010E94120601C08FEF6896E6E00C9454
:100690008E0DA8E1B0E0EFE4F3E00C94720D6983F5
:1006A0007A838B839C832D833E834F83588789E095
:1006B000E82EF12CEC0EFD1ECE010196B7010E9432
:1006C0009A058E010F5E1F4FCE010596B8010E945C
:1006D0009A058985823040F08989823028F0C701E7
:1006E000B8010E94120601C08FEF6896E6E00C94F4
:1006F0008E0DA8E1B0E0EFE7F3E00C94720D698392
:100700007A838B839C832D833E834F83588789E034
:10071000E82EF12CEC0EFD1ECE010196B7010E94D1
:100720009A058E010F5E1F4FCE010596B8010E94FB
:100730009A058985823040F08989823028F0C70186
:10074000B8010E94120601C081E06896E6E00C94B0
:100750008E0DACE0B0E0EFEAF3E00C94760D698327
:100760007A838B839C83CE010196BE016B5F7F4FA2
:100770000E949A058D81823061F1823050F184307F
:1007800021F48E81882351F12EC02F81388537FDC9
:1007900020C06E812F3131051CF06623F9F023C093
:1007A0008EE190E0821B930B29853A854B855C8511
:1007B00004C056954795379527958A95D2F76623B5
:1007C000B1F050954095309521953F4F4F4F5F4F79
:1007D0000EC020E030E040E050E009C02FEF3FEFD6
:1007E0004FEF5FE704C020E030E040E050E8B9019F
:1007F000CA012C96E2E00C94920DA8E0B0E0E3E090
:10080000F4E00C946E0D7B018C016115710581057E
:10081000910519F482E0898360C083E089838EE1C9
:10082000C82ED12CDC82CB82ED82FE820F8318870A
:10083000C801B7010E947604FC013197F7FF3BC065
:10084000222733272E1B3F0B57016801022E04C0BD
:10085000D694C794B794A7940A94D2F740E050E096
:1008600060E070E081E090E0A0E0B0E004C0880FBC
:10087000991FAA1FBB1F2A95D2F70197A109B10999
:100880008E219F21A023B1230097A105B10521F05E
:1008900041E050E060E070E04A295B296C297D2945
:1008A0004D835E836F8378878EE190E08E1B9F0B74
:1008B0009C838B8312C0309781F00E2E04C0EE0C07
:1008C000FF1C001F111F0A94D2F7ED82FE820F83D6
:1008D0001887CE1ADF0ADC82CB821A82CE010196FB
:1008E0000E94C5042896EAE00C948A0DEF92FF92CC
:1008F0000F931F937B018C0180E0E81680E0F806DF
:1009000081E0080780E0180788F48FEFE816F1040B
:100910000105110531F028F088E090E0A0E0B0E09A
:1009200017C080E090E0A0E0B0E012C080E0E816E0
:1009300080E0F80680E0080781E0180728F088E1E9
:1009400090E0A0E0B0E004C080E190E0A0E0B0E082
:1009500020E230E040E050E0281B390B4A0B5B0BF3
:1009600004C016950795F794E7948A95D2F7F70196
:10097000E859FF4F8081281B310941095109C901FC
:100980001F910F91FF90EF900895DF92EF92FF92E9
:100990000F931F93FC01E480F58006811781D180BD
:1009A0008081823048F480E090E0A0E1B0E0E82A65
:1009B000F92A0A2B1B2BA5C0843009F49FC0823072
:1009C00021F4EE24FF24870105C0E114F1040105A0
:1009D000110519F4E0E0F0E096C0628173819FEFA9
:1009E000623879070CF05BC022E83FEF261B370B1B
:1009F0002A3131052CF020E030E040E050E02AC000
:100A0000B801A701022E04C07695679557954795C2
:100A10000A94D2F781E090E0A0E0B0E004C0880F33
:100A2000991FAA1FBB1F2A95D2F70197A109B109E7
:100A30008E219F21A023B1230097A105B10521F0AC
:100A400081E090E0A0E0B0E09A01AB01282B392BC7
:100A50004A2B5B2BDA01C9018F779070A070B070C0
:100A600080349105A105B10539F427FF09C0205C48
:100A70003F4F4F4F5F4F04C0215C3F4F4F4F5F4F81
:100A8000E0E0F0E02030A0E03A07A0E04A07A0E470
:100A90005A0710F0E1E0F0E079018A0127C06038E0
:100AA000710564F5FB01E158FF4FD801C7018F774D
:100AB0009070A070B07080349105A105B10539F433
:100AC000E7FE0DC080E490E0A0E0B0E004C08FE35A
:100AD00090E0A0E0B0E0E80EF91E0A1F1B1F17FF10
:100AE00005C016950795F794E794319687E016951B
:100AF0000795F794E7948A95D1F705C0EE24FF2473
:100B00008701EFEFF0E06E2F679566276795902FCE
:100B10009F77D794DD24D7948E2F8695492F462B27
:100B2000582F5D29B701CA011F910F91FF90EF90D7
:100B3000DF900895FC01DB01408151812281622F09
:100B40006F7770E0221F2227221F9381892F880F41
:100B5000822B282F30E0991F9927991F11969C937B
:100B6000119721153105A9F541155105610571054B
:100B700011F482E037C082E89FEF13969C938E9326
:100B800012979A01AB0167E0220F331F441F551FD4
:100B90006A95D1F783E08C930DC0220F331F441F59
:100BA000551F12968D919C911397019713969C93C4
:100BB0008E931297203080E0380780E0480780E469
:100BC000580758F314962D933D934D935C931797C4
:100BD00008952F3F310579F44115510561057105DF
:100BE00019F484E08C93089564FF03C081E08C9332
:100BF00012C01C9210C02F57304013963C932E9376
:100C0000129783E08C9387E0440F551F661F771F70
:100C10008A95D1F7706414964D935D936D937C9390
:100C2000179708951F93DC01FB019C91923008F403
:100C300047C08081823008F443C0943051F411964B
:100C40001C91843099F58181682F70E0611B7109D6
:100C50003FC0843021F0923031F48230B9F181818B
:100C6000882389F12DC011961C9111978230F1F0E3
:100C700081811817D9F412962D913C911397828196
:100C800093818217930794F028173907BCF01496C4
:100C90008D919D910D90BC91A02D2481358146812F
:100CA0005781281739074A075B0718F4112341F0C9
:100CB0000AC082179307A407B50740F4112319F05F
:100CC00061E070E005C06FEF7FEF02C060E070E0B0
:100CD000CB011F9108950F931F93082F162F462FB6
:100CE000417081E060E00E944408412F46954170C8
:100CF00081E061E00E94440816951695412F4170ED
:100D000081E062E00E9444081695117081E063E082
:100D1000412F0E94440882E065E041E00E944408BF
:100D200082E064E041E00E94440882E063E041E048
:100D30000E94440882E062E041E00E9444080130E1
:100D400051F0013028F0023049F0033079F409C045
:100D500082E065E008C082E064E005C082E063E014
:100D600002C082E062E040E00E9444081F910F91BF
:100D700008951F93182F81E060E041E00E9428074A
:100D800081E061E041E00E94280781E062E041E00B
:100D90000E94280781E063E041E00E9428071130AB
:100DA00051F0113028F0123049F0133079F409C0B5
:100DB00082E065E008C082E064E005C082E063E0B4
:100DC00002C082E062E041E00E9428071F9108957E
:100DD000823079F483E062E00E944E0820E931E03D
:100DE00048EC50E0FA013197F1F721503040D1F74B
:100DF0000895833011F080E0089583E063E00E945D
:100E00004E0820E931E048EC50E0FA013197F1F763
:100E100021503040D1F708951F93162F823051F49E
:100E200083E062E040E00E942807113079F483E01B
:100E300062E00AC0833051F463E040E00E9428077A
:100E4000113021F483E063E00E94A1071F9108950F
:100E5000813029F1813038F0823009F43CC0833090
:100E600009F06EC053C0413059F42AB381E090E0DC
:100E700002C0880F991F6A95E2F7282B2ABB0895B4
:100E8000442309F05DC02AB381E090E002C0880FDE
:100E9000991F6A95E2F7809582238ABB08954130B5
:100EA00059F427B381E090E002C0880F991F6A953A
:100EB000E2F7282B27BB0895442309F041C027B34C
:100EC00081E090E002C0880F991F6A95E2F7809553
:100ED000822387BB0895413059F424B381E090E028
:100EE00002C0880F991F6A95E2F7282B24BB08954A
:100EF000442331F524B381E090E002C0880F991FAC
:100F00006A95E2F78095822384BB0895413059F4B5
:100F100021B381E090E002C0880F991F6A95E2F743
:100F2000282B21BB0895442359F421B381E090E09C
:100F300002C0880F991F6A95E2F78095822381BBD2
:100F40000895813091F0813028F08230C9F08330EB
:100F500061F521C02BB381E090E002C0880F991F9A
:100F60006A95E2F7282B2BBB089528B381E090E027
:100F700002C0880F991F6A95E2F7282B28BB0895B5
:100F800025B381E090E002C0880F991F6A95E2F7CF
:100F9000282B25BB089522B381E090E002C0880F82
:100FA000991F6A95E2F7282B22BB0895813091F0B2
:100FB000813028F08230C9F0833061F521C02BB335
:100FC00081E090E002C0880F991F6A95E2F7282718
:100FD0002BBB089528B381E090E002C0880F991FD1
:100FE0006A95E2F7282728BB089525B381E090E0B1
:100FF00002C0880F991F6A95E2F7282725BB08953C
:1010000022B381E090E002C0880F991F6A95E2F751
:10101000282722BB0895813099F0813028F0823052
:10102000D9F0833081F524C02BB381E090E002C079
:10103000880F991F6A95E2F7809582238BBB0895EC
:1010400028B381E090E002C0880F991F6A95E2F70B
:101050008095822388BB089525B381E090E002C08B
:10106000880F991F6A95E2F78095822385BB0895C2
:1010700022B381E090E002C0880F991F6A95E2F7E1
:101080008095822382BB0895413019F40E94A10704
:101090000895442311F40E940B080895813051F003
:1010A000813030F0823041F0833079F080E0089573
:1010B00089B303C086B301C083B390E002C09595A5
:1010C00087956A95E2F78170089580B390E002C039
:1010D000959587956A95E2F781700895813049F07A
:1010E000813028F0823039F0833041F406C06ABB89
:1010F000089567BB089564BB089561BB089581306E
:1011000049F0813028F0823039F0833041F406C054
:101110006BBB089568BB089565BB089562BB0895D5
:10112000FC018081823099F0833009F1813059F5DA
:101130008281938190936901809368018BB7806469
:101140008BBF85B78E7F85BF85B78D7F0EC08281AF
:10115000938190936B0180936A018BB780688BBFFA
:1011600085B7846085BF85B7877F85BF08958281F5
:10117000938190936D0180936C018BB780628BBFDC
:1011800085B78F7B85BF0895813001F5623079F096
:10119000633020F4613009F047C006C0633069F065
:1011A000643009F041C00CC085B78E7F02C085B79E
:1011B000816085BF85B78D7F32C085B78E7F02C0C5
:1011C00085B7816085BF85B7826029C08230F1F420
:1011D000623069F0633018F4613031F505C0633076
:1011E00061F0643009F50CC085B78B7F02C085B70C
:1011F000846085BF85B7877F12C085B78B7F02C0AB
:1012000085B7846085BF85B7886009C0833061F485
:10121000633019F0643041F404C085B78F7B85BF1B
:10122000089584B7806484BF0895823039F0833094
:1012300049F0813051F48BB7806402C08BB780686D
:101240008BBF08958BB780628BBF0895823039F0D1
:10125000833049F0813051F48BB78F7B02C08BB75C
:101260008F778BBF08958BB78F7D8BBF08951F92AB
:101270000F920FB60F9211242F933F934F935F93CA
:101280006F937F938F939F93AF93BF93EF93FF934E
:10129000E0916801F09169010995FF91EF91BF918B
:1012A000AF919F918F917F916F915F914F913F91FE
:1012B0002F910F900FBE0F901F9018951F920F92B5
:1012C0000FB60F9211242F933F934F935F936F9319
:1012D0007F938F939F93AF93BF93EF93FF93E0918F
:1012E0006A01F0916B010995FF91EF91BF91AF9168
:1012F0009F918F917F916F915F914F913F912F912E
:101300000F900FBE0F901F9018951F920F920FB65F
:101310000F9211242F933F934F935F936F937F937B
:101320008F939F93AF93BF93EF93FF93E0916C01E3
:10133000F0916D010995FF91EF91BF91AF919F9150
:101340008F917F916F915F914F913F912F910F906E
:101350000FBE0F901F9018952F923F925F926F9241
:101360007F928F929F92AF92BF92CF92DF92EF9235
:10137000FF920F931F93CF93DF93C82FD0E0CC0F32
:10138000DD1F55243B018824992488EC282E312C1C
:1013900043C083E067E00E94D607C401B3010E9406
:1013A000FD035B016C0120E030E04AEF54E40E9451
:1013B0001F027B018C0120E030E040E85FE30E94E7
:1013C000790388231CF461E070E022C0C801B701F2
:1013D00020E03FEF4FE757E40E9419031816A4F4EA
:1013E000C601B50120E030E040E251E40E941F0256
:1013F0000E94490005C0C1010197F1F7615070409A
:1014000061157105C1F707C0C801B7010E94490005
:10141000CB010197F1F75394852D90E08C179D0730
:101420000CF4B7CFDF91CF911F910F91FF90EF9008
:10143000DF90CF90BF90AF909F908F907F906F90F4
:101440005F903F902F90089583E067E00E940B0823
:10145000089583E067E00E94A107089583E067E0B4
:1014600041E00E94280708951F9380E060E040E07B
:101470000E94440880E061E041E00E94440880E06E
:1014800062E041E00E94440880E065E00E944E086E
:10149000882381F484EF91E028EC30E0F901319762
:1014A000F1F70197D9F780E065E00E944E088823A4
:1014B000D1F332C080E064E00E944E08882391F4AA
:1014C00084EF91E028EC30E0F9013197F1F70197D2
:1014D000D9F71FE080E064E00E944E088823E9F419
:1014E00012E0F8CF80E063E00E944E08882311F0FC
:1014F0001FE013C084EF91E028EC30E0F901319750
:10150000F1F70197D9F71FE080E063E00E944E08F1
:10151000882319F413E0F8CF11E080E060E041E0A7
:101520000E94440880E061E040E00E94440880E0BE
:1015300062E041E00E94440880E065E00E944E08BD
:10154000882389F484EF91E028EC30E0F9013197A9
:10155000F1F70197D9F780E065E00E944E088823F3
:1015600081F514E0F8CF80E064E00E944E08882303
:1015700089F484EF91E028EC30E0F9013197F1F73C
:101580000197D9F780E064E00E944E088823C9F4EF
:1015900015E0F8CF80E063E00E944E08882389F4CC
:1015A00084EF91E028EC30E0F9013197F1F70197F1
:1015B000D9F780E063E00E944E08882311F416E01A
:1015C000F8CF80E060E041E00E94440880E061E004
:1015D00041E00E94440880E062E040E00E9444084C
:1015E00080E065E00E944E08882389F484EF91E052
:1015F00028EC30E0F9013197F1F70197D9F780E055
:1016000065E00E944E08882381F517E0F8CF80E05E
:1016100064E00E944E08882389F484EF91E028EC6E
:1016200030E0F9013197F1F70197D9F780E064E0F4
:101630000E944E088823C9F418E0F8CF80E063E0E8
:101640000E944E08882389F484EF91E028EC30E072
:10165000F9013197F1F70197D9F780E063E00E9433
:101660004E08882311F419E0F8CF812F1F910895B7
:1016700080E065E040E00E94280780E064E040E010
:101680000E94280780E063E040E00E94280780E095
:1016900060E041E00E94280780E061E041E00E94B4
:1016A000280780E062E041E00E94280780E065E0D2
:1016B0000E94A10780E064E00E94A10780E063E04F
:1016C0000E94A1070895EF92FF921F93182F82E0C6
:1016D00066E041E00E944408412F4295417081E05C
:1016E00064E00E944408412F42954695417081E094
:1016F00065E00E944408412F429546954695417009
:1017000081E066E00E944408412F441F4427441FA3
:1017100081E067E00E94440882E067E041E00E94C7
:10172000440880EAE82E8FE0F82EC7010197F1F710
:1017300082E067E040E00E944408C7010197F1F7AA
:10174000412F417081E064E00E944408412F46959A
:10175000417081E065E00E94440816951695412F7E
:10176000417081E066E00E9444081695117081E0A6
:1017700067E0412F0E94440882E067E041E00E9458
:101780004408C7010197F1F782E067E040E00E945A
:101790004408C7010197F1F71F91FF90EF9008955A
:1017A000CF93DF93EC0103C00E94630B21968881E5
:1017B0008823D1F7DF91CF9108950F931F93DF9383
:1017C000CF93CDB7DEB764970FB6F894DEBF0FBEE8
:1017D000CDBFDC01CB018E010F5F1F4FB8014AE086
:1017E00050E00E949D0DC8010E94D00B64960FB678
:1017F000F894DEBF0FBECDBFCF91DF911F910F9147
:101800000895EF92FF921F93182F82E066E040E068
:101810000E944408412F4295417081E064E00E949B
:101820004408412F42954695417081E065E00E9451
:101830004408412F429546954695417081E066E007
:101840000E944408412F441F4427441F81E067E061
:101850000E94440882E067E041E00E94440890EA68
:10186000E92E9FE0F92EC7010197F1F782E067E0CA
:1018700040E00E944408C7010197F1F7412F4170F1
:1018800081E064E00E944408412F4695417081E068
:1018900065E00E94440816951695412F417081E03D
:1018A00066E00E9444081695117081E067E0412FC0
:1018B0000E94440882E067E041E00E944408C701BA
:1018C0000197F1F782E067E040E00E944408C70119
:1018D0000197F1F780E29EE40197F1F71F91FF90E5
:1018E000EF900895882329F4862F80680E94010CC8
:1018F0000895813021F4862F806C0E94010C089598
:1019000081E00E94010C08950F931F9381E064E031
:1019100041E00E94280781E065E041E00E9428073D
:1019200081E066E041E00E94280781E067E041E055
:101930000E94280782E067E041E00E94280782E0D9
:1019400066E041E00E94280784EF91E028EC30E057
:10195000F9013197F1F70197D9F782E00E94010C64
:1019600000ED17E0C8010197F1F788E20E94010C31
:10197000C8010197F1F78CE00E94010CC8010197A2
:10198000F1F781E00E94010C80E49CE90197F1F7F6
:1019900086E00E94010C80E80E94010C1F910F91CB
:1019A0000895853079F0863018F48430A1F40FC0A2
:1019B000863029F0873079F483E067E005C083E062
:1019C00066E002C083E065E00E94D607089583E0E8
:1019D00064E00E94D6070895853079F0863018F4C7
:1019E0008430A1F40FC0863029F0873079F483E089
:1019F00067E005C083E066E002C083E065E00E9426
:101A00000B08089583E064E00E940B080895853078
:101A100079F0863018F48430A1F40FC0863029F0B4
:101A2000873079F483E067E005C083E066E002C0B8
:101A300083E065E00E94A107089583E064E00E94CE
:101A4000A1070895853079F0863018F48430B1F418
:101A500010C0863029F0873089F483E067E005C044
:101A600083E066E002C083E065E041E00E94280771
:101A7000089583E064E041E00E942807089587E02C
:101A80000E94220D86E00E94220D85E00E94220D18
:101A900084E00E94220D82E060E00E940C0782E058
:101AA0000E94E8068823D9F382E00E94E806882392
:101AB000D9F787E00E94070D86E00E94D10C85E0EF
:101AC0000E94D10C84E00E94D10CE9CF2F923F926A
:101AD0004F925F926F927F928F929F92AF92BF923E
:101AE000CF92DF92EF92FF920F931F93CF93DF93EA
:101AF000CDB7DEB7CA1BDB0B0FB6F894DEBF0FBE47
:101B0000CDBF09942A88398848885F846E847D8493
:101B10008C849B84AA84B984C884DF80EE80FD8095
:101B20000C811B81AA81B981CE0FD11D0FB6F8940B
:101B3000DEBF0FBECDBFED010895FB019F01423016
:101B400074F0453264F4642F77270E94C30D805DE2
:101B50008A330CF0895D8193CB010097A1F7108245
:101B6000C9010C94B30DDC01FC01672F719177233F
:101B7000E1F7329704C07C916D9370836291AE1748
:101B8000BF07C8F30895AA1BBB1B51E107C0AA1FDA
:101B9000BB1FA617B70710F0A61BB70B881F991F0E
:101BA0005A95A9F780959095BC01CD010895F894B8
:021BB000FFCF65
:101BB2000000000000000000000102020303030312
:101BC20004040404040404040505050505050505CB
:101BD20005050505050505050606060606060606AB
:101BE2000606060606060606060606060606060693
:101BF200060606060606060607070707070707077B
:101C02000707070707070707070707070707070762
:101C12000707070707070707070707070707070752
:101C22000707070707070707070707070707070742
:101C3200070707070707070708080808080808082A
:101C42000808080808080808080808080808080812
:101C52000808080808080808080808080808080802
:101C620008080808080808080808080808080808F2
:101C720008080808080808080808080808080808E2
:101C820008080808080808080808080808080808D2
:101C920008080808080808080808080808080808C2
:101CA20008080808080808080808080808080808B2
:081CB2000808080808080808EA
:00000001FF
