:100000000C942A000C9458020C947F020C94A602C3
:100010000C9447000C9447000C9447000C94470044
:100020000C9447000C9447000C9493030C946C03BD
:100030000C9447000C9447000C9447000C94470024
:100040000C9447000C9447000C9447000C94470014
:100050000C94470011241FBECFE5D8E0DEBFCDBF12
:1000600010E0A0E6B0E0ECE6FDE002C005900D92E5
:10007000A436B107D9F710E0A4E6B0E001C01D92A4
:10008000AA37B107E1F70E9450060C94B4060C940D
:100090000000813029F1813038F0823009F43CC011
:1000A000833009F06EC053C0413059F42AB381E067
:1000B00090E002C0880F991F6A95E2F7282B2ABBAF
:1000C0000895442309F05DC02AB381E090E002C0A6
:1000D000880F991F6A95E2F7809582238ABB08955D
:1000E000413059F427B381E090E002C0880F991F96
:1000F0006A95E2F7282B27BB0895442309F041C0F5
:1001000027B381E090E002C0880F991F6A95E2F75B
:100110008095822387BB0895413059F424B381E050
:1001200090E002C0880F991F6A95E2F7282B24BB44
:100130000895442331F524B381E090E002C0880F94
:10014000991F6A95E2F78095822384BB0895413018
:1001500059F421B381E090E002C0880F991F6A959D
:10016000E2F7282B21BB0895442359F421B381E001
:1001700090E002C0880F991F6A95E2F7809582236C
:1001800081BB0895813091F0813028F08230C9F030
:10019000833061F521C02BB381E090E002C0880F6D
:1001A000991F6A95E2F7282B2BBB089528B381E0AD
:1001B00090E002C0880F991F6A95E2F7282B28BBB0
:1001C000089525B381E090E002C0880F991F6A95D9
:1001D000E2F7282B25BB089522B381E090E002C00E
:1001E000880F991F6A95E2F7282B22BB089581306A
:1001F00091F0813028F08230C9F0833061F521C060
:100200002BB381E090E002C0880F991F6A95E2F756
:1002100028272BBB089528B381E090E002C0880F07
:10022000991F6A95E2F7282728BB089525B381E036
:1002300090E002C0880F991F6A95E2F7282725BB36
:10024000089522B381E090E002C0880F991F6A955B
:10025000E2F7282722BB0895813099F0813028F0F9
:100260008230D9F0833081F524C02BB381E090E057
:1002700002C0880F991F6A95E2F7809582238BBB95
:10028000089528B381E090E002C0880F991F6A9515
:10029000E2F78095822388BB089525B381E090E042
:1002A00002C0880F991F6A95E2F78095822385BB6B
:1002B000089522B381E090E002C0880F991F6A95EB
:1002C000E2F78095822382BB0895413019F40E94A1
:1002D000C2000895442311F40E942C010895813036
:1002E00051F0813030F0823041F0833079F080E09D
:1002F000089589B303C086B301C083B390E002C000
:10030000959587956A95E2F78170089580B390E09E
:1003100002C0959587956A95E2F7817008958130BE
:1003200049F0813028F0823039F0833041F406C042
:100330006ABB089567BB089564BB089561BB0895C7
:10034000813049F0813028F0823039F0833041F437
:1003500006C06BBB089568BB089565BB089562BB7A
:100360000895FC018081823099F0833009F1813059
:1003700059F58281938190936500809364008BB7D7
:1003800080648BBF85B78E7F85BF85B78D7F0EC09C
:100390008281938190936700809366008BB7806819
:1003A0008BBF85B7846085BF85B7877F85BF08957C
:1003B0008281938190936900809368008BB78062FB
:1003C0008BBF85B78F7B85BF0895813001F5623083
:1003D00079F0633020F4613009F047C006C0633023
:1003E00069F0643009F041C00CC085B78E7F02C04F
:1003F00085B7816085BF85B78D7F32C085B78E7F19
:1004000002C085B7816085BF85B7826029C0823010
:10041000F1F4623069F0633018F4613031F505C0F1
:10042000633061F0643009F50CC085B78B7F02C082
:1004300085B7846085BF85B7877F12C085B78B7FFE
:1004400002C085B7846085BF85B7886009C08330E6
:1004500061F4633019F0643041F404C085B78F7BD8
:1004600085BF089584B7806484BF0895823039F0D1
:10047000833049F0813051F48BB7806402C08BB770
:1004800080688BBF08958BB780628BBF08958230E0
:1004900039F0833049F0813051F48BB78F7B02C043
:1004A0008BB78F778BBF08958BB78F7D8BBF0895E8
:1004B0001F920F920FB60F9211242F933F934F93D9
:1004C0005F936F937F938F939F93AF93BF93EF93BC
:1004D000FF93E0916400F09165000995FF91EF9121
:1004E000BF91AF919F918F917F916F915F914F914C
:1004F0003F912F910F900FBE0F901F9018951F9254
:100500000F920FB60F9211242F933F934F935F9347
:100510006F937F938F939F93AF93BF93EF93FF93CB
:10052000E0916600F09167000995FF91EF91BF910E
:10053000AF919F918F917F916F915F914F913F917B
:100540002F910F900FBE0F901F9018951F920F9232
:100550000FB60F9211242F933F934F935F936F9396
:100560007F938F939F93AF93BF93EF93FF93E0910C
:100570006800F09169000995FF91EF91BF91AF91EB
:100580009F918F917F916F915F914F913F912F91AB
:100590000F900FBE0F901F901895FC018081823044
:1005A00069F0833018F48130C1F405C0833049F01C
:1005B000843099F40CC083B7877F05C083B7877FE9
:1005C00008C083B7886083BF83B78F7B05C083B7BC
:1005D000886083BF83B7806483BF8181843009F1E1
:1005E000853038F4823089F08330C0F48130A1F551
:1005F00009C08630F9F08630D0F0873009F18830B4
:1006000059F521C083B78E7F02C083B7816083BF55
:1006100083B78D7F83BF83B78B7F1DC083B78E7FEA
:1006200002C083B7816083BF83B78260F3CF83B793
:100630008E7F02C083B7816083BF83B78D7F08C080
:1006400083B78E7F02C083B7816083BF83B7826028
:1006500083BF83B7846083BF8281823069F0833037
:1006600018F48130E1F405C0833061F08430B9F4CE
:1006700010C083B78F7D08C083B78F7D83BF83B7DA
:10068000806105C083B7806283BF83B78F7E83BFDD
:10069000089583B7806283BF83B7806183BF089565
:1006A000909379008093780089B7816089BF08951D
:1006B00089B78E7F89BF08959093770080937600E5
:1006C00089B7826089BF089589B78D7F89BF0895F2
:1006D00082BF08958CBF08951F920F920FB60F929C
:1006E00011242F933F934F935F936F937F938F9337
:1006F0009F93AF93BF93EF93FF93E0917800F091B6
:1007000079000995FF91EF91BF91AF919F918F91E2
:100710007F916F915F914F913F912F910F900FBEFD
:100720000F901F9018951F920F920FB60F921124E1
:100730002F933F934F935F936F937F938F939F93E9
:10074000AF93BF93EF93FF93E0917800F09179001E
:100750000995FF91EF91BF91AF919F918F917F91FB
:100760006F915F914F913F912F910F900FBE0F901E
:100770001F901895823079F483E062E00E946F0147
:1007800020E931E048EC50E0FA013197F1F72150CF
:100790003040D1F70895833011F080E0089583E070
:1007A00063E00E946F0120E931E048EC50E0FA017B
:1007B0003197F1F721503040D1F708951F93162F4C
:1007C000823051F483E062E040E00E944900113041
:1007D00079F483E062E00AC0833051F463E040E0E2
:1007E0000E944900113021F483E063E00E94C200BE
:1007F0001F910895EF92FF921F93182F82E066E0F9
:1008000041E00E946501412F4295417081E064E022
:100810000E946501412F42954695417081E065E057
:100820000E946501412F429546954695417081E0B1
:1008300066E00E946501412F441F4427441F81E068
:1008400067E00E94650182E067E041E00E94650187
:1008500080EAE82E8FE0F82EC7010197F1F782E0D9
:1008600067E040E00E946501C7010197F1F7412F61
:10087000417081E064E00E946501412F469541701E
:1008800081E065E00E94650116951695412F417043
:1008900081E066E00E9465011695117081E067E0D5
:1008A000412F0E94650182E067E041E00E946501FE
:1008B000C7010197F1F782E067E040E00E9465011F
:1008C000C7010197F1F71F91FF90EF900895CF9323
:1008D000DF93EC0103C00E94FA03219688818823EC
:1008E000D1F7DF91CF9108950F931F93DF93CF93AB
:1008F000CDB7DEB764970FB6F894DEBF0FBECDBF9D
:10090000DC01CB018E010F5F1F4FB8014AE050E0C0
:100910000E947A06C8010E94670464960FB6F89494
:10092000DEBF0FBECDBFCF91DF911F910F91089514
:10093000EF92FF921F93182F82E066E040E00E9442
:100940006501412F4295417081E064E00E9465019C
:10095000412F42954695417081E065E00E94650116
:10096000412F429546954695417081E066E00E9490
:100970006501412F441F4427441F81E067E00E9426
:10098000650182E067E041E00E94650190EAE92E9E
:100990009FE0F92EC7010197F1F782E067E040E0A0
:1009A0000E946501C7010197F1F7412F417081E075
:1009B00064E00E946501412F4695417081E065E049
:1009C0000E94650116951695412F417081E066E001
:1009D0000E9465011695117081E067E0412F0E9429
:1009E000650182E067E041E00E946501C70101976F
:1009F000F1F782E067E040E00E946501C7010197DE
:100A0000F1F780E29EE40197F1F71F91FF90EF90DC
:100A10000895882329F4862F80680E9498040895F9
:100A2000813021F4862F806C0E949804089581E023
:100A30000E94980408950F931F9381E064E041E0C1
:100A40000E94490081E065E041E00E94490081E0A8
:100A500066E041E00E94490081E067E041E00E94D9
:100A6000490082E067E041E00E94490082E066E0E0
:100A700041E00E94490084EF91E028EC30E0F90168
:100A80003197F1F70197D9F782E00E94980400EDC1
:100A900017E0C8010197F1F788E20E949804C801A5
:100AA0000197F1F78CE00E949804C8010197F1F7D3
:100AB00081E00E94980480E49CE90197F1F786E0C8
:100AC0000E94980480E80E9498041F910F91089555
:100AD000853079F0863018F48430A1F40FC0863068
:100AE00029F0873079F483E067E005C083E066E0B1
:100AF00002C083E065E00E94F700089583E064E0AF
:100B00000E94F7000895853079F0863018F484301B
:100B1000A1F40FC0863029F0873079F483E067E0D4
:100B200005C083E066E002C083E065E00E942C011E
:100B3000089583E064E00E942C010895853079F0E7
:100B4000863018F48430A1F40FC0863029F0873045
:100B500079F483E067E005C083E066E002C083E0EB
:100B600065E00E94C200089583E064E00E94C20034
:100B70000895853079F0863018F48430B1F410C0CF
:100B8000863029F0873089F483E067E005C083E090
:100B900066E002C083E065E041E00E9449000895FC
:100BA00083E064E041E00E94490008951F93809132
:100BB0006A0090916B00A0916C00B0916D0001965D
:100BC000A11DB11D80936A0090936B00A0936C00EF
:100BD000B0936D0080916A0090916B00A0916C00C1
:100BE000B0916D008452944FA040B04009F056C0BF
:100BF00010926A0010926B0010926C0010926D00BF
:100C000080916E0020916F003091700040917100D2
:100C100060917200E0917300A091740010917500D2
:100C2000B82FBF5F91E0B81708F090E0F92FF20FEE
:100C300081E0F21708F080E0782F730F81E07317DE
:100C400008F080E0582F540F81E0541708F080E03E
:100C5000382F360F81E0361708F080E0282F2E0F4E
:100C600081E02E1708F080E0982F9A0F81E09A1704
:100C700008F080E0810FB0936E00F0936F007093E6
:100C80007000509371003093720020937300909322
:100C900074008093750087E00E9468051F91089595
:100CA000CF93DF9387E00E94B90586E00E94B905E3
:100CB00085E00E94B90584E00E94B90580E690E0D5
:100CC0000E94CD0286ED95E00E945003789420E1C9
:100CD00037E2C8ECD0E005C0CE010197F1F7215012
:100CE000304021153105C1F786E00E94680520E1FA
:100CF00037E2F2CFFB019F01423074F0453264F4D9
:100D0000642F77270E94A006805D8A330CF0895DEE
:100D10008193CB010097A1F71082C9010C94900632
:100D2000DC01FC01672F71917723E1F7329704C052
:100D30007C916D9370836291AE17BF07C8F30895DD
:100D4000AA1BBB1B51E107C0AA1FBB1FA617B707F1
:100D500010F0A61BB70B881F991F5A95A9F780950D
:0C0D60009095BC01CD010895F894FFCFE0
:040D6C00010201007F
:00000001FF
